{
  "_format": "hh-sol-artifact-1",
  "contractName": "SocialRecovery",
  "sourceName": "contracts/SocialRecovery.sol",
  "abi": [
    {
      "inputs": [
        {
          "internalType": "bytes32",
          "name": "_initialSecretHash",
          "type": "bytes32"
        }
      ],
      "stateMutability": "nonpayable",
      "type": "constructor"
    },
    {
      "anonymous": false,
      "inputs": [
        {
          "indexed": true,
          "internalType": "address",
          "name": "previousOwner",
          "type": "address"
        },
        {
          "indexed": true,
          "internalType": "address",
          "name": "newOwner",
          "type": "address"
        }
      ],
      "name": "OwnershipTransferred",
      "type": "event"
    },
    {
      "inputs": [],
      "name": "account",
      "outputs": [
        {
          "internalType": "address",
          "name": "",
          "type": "address"
        }
      ],
      "stateMutability": "view",
      "type": "function"
    },
    {
      "inputs": [
        {
          "internalType": "address",
          "name": "newGuardian",
          "type": "address"
        }
      ],
      "name": "addGuardian",
      "outputs": [],
      "stateMutability": "nonpayable",
      "type": "function"
    },
    {
      "inputs": [
        {
          "internalType": "address",
          "name": "newGuardian",
          "type": "address"
        }
      ],
      "name": "addGuardianWithThresholdUpdate",
      "outputs": [],
      "stateMutability": "nonpayable",
      "type": "function"
    },
    {
      "inputs": [
        {
          "internalType": "bytes32",
          "name": "recoverProcessId",
          "type": "bytes32"
        },
        {
          "internalType": "address",
          "name": "guardian",
          "type": "address"
        }
      ],
      "name": "getGuardianVote",
      "outputs": [
        {
          "internalType": "address",
          "name": "",
          "type": "address"
        }
      ],
      "stateMutability": "view",
      "type": "function"
    },
    {
      "inputs": [],
      "name": "getGuardians",
      "outputs": [
        {
          "internalType": "address[]",
          "name": "",
          "type": "address[]"
        }
      ],
      "stateMutability": "view",
      "type": "function"
    },
    {
      "inputs": [],
      "name": "getGuardiansThreshold",
      "outputs": [
        {
          "internalType": "uint256",
          "name": "",
          "type": "uint256"
        }
      ],
      "stateMutability": "view",
      "type": "function"
    },
    {
      "inputs": [],
      "name": "getRecoverProcessesIds",
      "outputs": [
        {
          "internalType": "bytes32[]",
          "name": "",
          "type": "bytes32[]"
        }
      ],
      "stateMutability": "view",
      "type": "function"
    },
    {
      "inputs": [],
      "name": "getSecretHash",
      "outputs": [
        {
          "internalType": "bytes32",
          "name": "",
          "type": "bytes32"
        }
      ],
      "stateMutability": "view",
      "type": "function"
    },
    {
      "inputs": [
        {
          "internalType": "address",
          "name": "_address",
          "type": "address"
        }
      ],
      "name": "isGuardian",
      "outputs": [
        {
          "internalType": "bool",
          "name": "",
          "type": "bool"
        }
      ],
      "stateMutability": "view",
      "type": "function"
    },
    {
      "inputs": [],
      "name": "owner",
      "outputs": [
        {
          "internalType": "address",
          "name": "",
          "type": "address"
        }
      ],
      "stateMutability": "view",
      "type": "function"
    },
    {
      "inputs": [
        {
          "internalType": "bytes32",
          "name": "recoverProcessId",
          "type": "bytes32"
        },
        {
          "internalType": "string",
          "name": "plainSecret",
          "type": "string"
        },
        {
          "internalType": "bytes32",
          "name": "newHash",
          "type": "bytes32"
        }
      ],
      "name": "recoverOwnership",
      "outputs": [],
      "stateMutability": "nonpayable",
      "type": "function"
    },
    {
      "inputs": [
        {
          "internalType": "bytes32",
          "name": "recoverProcessId",
          "type": "bytes32"
        },
        {
          "internalType": "bytes32",
          "name": "newHash",
          "type": "bytes32"
        }
      ],
      "name": "recoverOwnershipWithoutSecret",
      "outputs": [],
      "stateMutability": "nonpayable",
      "type": "function"
    },
    {
      "inputs": [
        {
          "internalType": "address",
          "name": "currentGuardian",
          "type": "address"
        }
      ],
      "name": "removeGuardian",
      "outputs": [],
      "stateMutability": "nonpayable",
      "type": "function"
    },
    {
      "inputs": [
        {
          "internalType": "address",
          "name": "guardian",
          "type": "address"
        }
      ],
      "name": "removeGuardianWithThresholdUpdate",
      "outputs": [],
      "stateMutability": "nonpayable",
      "type": "function"
    },
    {
      "inputs": [],
      "name": "renounceOwnership",
      "outputs": [],
      "stateMutability": "nonpayable",
      "type": "function"
    },
    {
      "inputs": [
        {
          "internalType": "bytes32",
          "name": "newHash",
          "type": "bytes32"
        }
      ],
      "name": "setSecret",
      "outputs": [],
      "stateMutability": "nonpayable",
      "type": "function"
    },
    {
      "inputs": [
        {
          "internalType": "uint256",
          "name": "newThreshold",
          "type": "uint256"
        }
      ],
      "name": "setThreshold",
      "outputs": [],
      "stateMutability": "nonpayable",
      "type": "function"
    },
    {
      "inputs": [
        {
          "internalType": "bytes4",
          "name": "_interfaceId",
          "type": "bytes4"
        }
      ],
      "name": "supportsInterface",
      "outputs": [
        {
          "internalType": "bool",
          "name": "",
          "type": "bool"
        }
      ],
      "stateMutability": "view",
      "type": "function"
    },
    {
      "inputs": [
        {
          "internalType": "address",
          "name": "newOwner",
          "type": "address"
        }
      ],
      "name": "transferOwnership",
      "outputs": [],
      "stateMutability": "nonpayable",
      "type": "function"
    },
    {
      "inputs": [
        {
          "internalType": "bytes32",
          "name": "recoverProcessId",
          "type": "bytes32"
        },
        {
          "internalType": "address",
          "name": "newOwner",
          "type": "address"
        }
      ],
      "name": "voteToRecover",
      "outputs": [],
      "stateMutability": "nonpayable",
      "type": "function"
    }
  ],
  "bytecode": "0x60806040523480156200001157600080fd5b506040516200343f3803806200343f833981810160405281019062000037919062000215565b33600160006101000a81548173ffffffffffffffffffffffffffffffffffffffff021916908373ffffffffffffffffffffffffffffffffffffffff1602179055506200008e33620000a460201b62000d1b1760201c565b8060048190555060016002819055505062000247565b620000b4620001ac60201b60201c565b73ffffffffffffffffffffffffffffffffffffffff168173ffffffffffffffffffffffffffffffffffffffff1614620001a95760008060009054906101000a900473ffffffffffffffffffffffffffffffffffffffff169050816000806101000a81548173ffffffffffffffffffffffffffffffffffffffff021916908373ffffffffffffffffffffffffffffffffffffffff1602179055508173ffffffffffffffffffffffffffffffffffffffff168173ffffffffffffffffffffffffffffffffffffffff167f8be0079c531659141344cd1fd0a4f28419497f9722a3daafe3b4186f6b6457e060405160405180910390a3505b50565b60008060009054906101000a900473ffffffffffffffffffffffffffffffffffffffff16905090565b600080fd5b6000819050919050565b620001ef81620001da565b8114620001fb57600080fd5b50565b6000815190506200020f81620001e4565b92915050565b6000602082840312156200022e576200022d620001d5565b5b60006200023e84828501620001fe565b91505092915050565b6131e880620002576000396000f3fe608060405234801561001057600080fd5b506004361061012c5760003560e01c80636c34e92b116100ad578063930c1a2711610071578063930c1a27146102f7578063960bfe0414610313578063a526d83b1461032f578063d4adf3621461034b578063f2fde38b1461037b5761012c565b80636c34e92b1461027b5780637140415614610297578063715018a6146102b35780637a118daf146102bd5780638da5cb5b146102d95761012c565b80633f6e9749116100f45780633f6e9749146101e9578063443ace44146102075780635d7df90c146102235780635dab242014610241578063624d7ffb1461025f5761012c565b806301ffc9a7146101315780630665f04b146101615780630c68ba211461017f578063187c5348146101af57806335a9c82f146101cd575b600080fd5b61014b60048036038101906101469190611c26565b610397565b6040516101589190611c6e565b60405180910390f35b6101696103f8565b6040516101769190611d79565b60405180910390f35b61019960048036038101906101949190611dc7565b610409565b6040516101a69190611c6e565b60405180910390f35b6101b7610426565b6040516101c49190611e0d565b60405180910390f35b6101e760048036038101906101e29190611e5e565b610430565b005b6101f161048a565b6040516101fe9190611f49565b60405180910390f35b610221600480360381019061021c9190611dc7565b6104ae565b005b61022b610529565b6040516102389190611f7a565b60405180910390f35b610249610533565b6040516102569190611fa4565b60405180910390f35b61027960048036038101906102749190612105565b610559565b005b61029560048036038101906102909190612174565b610724565b005b6102b160048036038101906102ac9190611dc7565b6108ed565b005b6102bb6109ad565b005b6102d760048036038101906102d291906121b4565b6109c1565b005b6102e1610ae6565b6040516102ee9190611fa4565b60405180910390f35b610311600480360381019061030c9190611dc7565b610b0f565b005b61032d60048036038101906103289190612220565b610b2b565b005b61034960048036038101906103449190611dc7565b610b95565b005b610365600480360381019061036091906121b4565b610c09565b6040516103729190611fa4565b60405180910390f35b61039560048036038101906103909190611dc7565b610c97565b005b600063cb81043b60e01b7bffffffffffffffffffffffffffffffffffffffffffffffffffffffff1916827bffffffffffffffffffffffffffffffffffffffffffffffffffffffff191614806103f157506103f082610e1a565b5b9050919050565b60606104046007610e84565b905090565b600061041f826007610ea590919063ffffffff16565b9050919050565b6000600254905090565b610438610ed5565b806000801b81141561047f576040517f08c379a0000000000000000000000000000000000000000000000000000000008152600401610476906122aa565b60405180910390fd5b816004819055505050565b60606104a9600660006003548152602001908152602001600020610f4c565b905090565b6104b6610ed5565b6104ca816007610ea590919063ffffffff16565b610509576040517f08c379a00000000000000000000000000000000000000000000000000000000081526004016105009061233c565b60405180910390fd5b61051d816007610f6190919063ffffffff16565b50610526610f91565b50565b6000600454905090565b600160009054906101000a900473ffffffffffffffffffffffffffffffffffffffff1681565b806000801b8114156105a0576040517f08c379a0000000000000000000000000000000000000000000000000000000008152600401610597906122aa565b60405180910390fd5b6105aa8484610ffd565b816004819055506003600081548092919060010191905055506000600160009054906101000a900473ffffffffffffffffffffffffffffffffffffffff1673ffffffffffffffffffffffffffffffffffffffff16638da5cb5b6040518163ffffffff1660e01b815260040160206040518083038186803b15801561062d57600080fd5b505afa158015610641573d6000803e3d6000fd5b505050506040513d601f19601f820116820180604052508101906106659190612371565b90506106788163c403d48f60e01b6111b3565b6106b7576040517f08c379a00000000000000000000000000000000000000000000000000000000081526004016106ae90612410565b60405180910390fd5b60008061070b600160009054906101000a900473ffffffffffffffffffffffffffffffffffffffff1633617fbf60001b6040516020016106f79190612451565b6040516020818303038152906040526112de565b9150915061071a8383836115c5565b5050505050505050565b806000801b81141561076b576040517f08c379a0000000000000000000000000000000000000000000000000000000008152600401610762906122aa565b60405180910390fd5b610774836116d6565b816004819055506003600081548092919060010191905055506000600160009054906101000a900473ffffffffffffffffffffffffffffffffffffffff1673ffffffffffffffffffffffffffffffffffffffff16638da5cb5b6040518163ffffffff1660e01b815260040160206040518083038186803b1580156107f757600080fd5b505afa15801561080b573d6000803e3d6000fd5b505050506040513d601f19601f8201168201806040525081019061082f9190612371565b90506108428163c403d48f60e01b6111b3565b610881576040517f08c379a000000000000000000000000000000000000000000000000000000000815260040161087890612410565b60405180910390fd5b6000806108d5600160009054906101000a900473ffffffffffffffffffffffffffffffffffffffff1633617fbf60001b6040516020016108c19190612451565b6040516020818303038152906040526112de565b915091506108e48383836115c5565b50505050505050565b6108f5610ed5565b610909816007610ea590919063ffffffff16565b610948576040517f08c379a000000000000000000000000000000000000000000000000000000000815260040161093f9061233c565b60405180910390fd5b600254610955600761187a565b11610995576040517f08c379a000000000000000000000000000000000000000000000000000000000815260040161098c906124de565b60405180910390fd5b6109a9816007610f6190919063ffffffff16565b5050565b6109b5610ed5565b6109bf6000610d1b565b565b6109d5336007610ea590919063ffffffff16565b610a14576040517f08c379a0000000000000000000000000000000000000000000000000000000008152600401610a0b9061254a565b60405180910390fd5b60006003549050610a40836006600084815260200190815260200160002061188f90919063ffffffff16565b508160056000838152602001908152602001600020600085815260200190815260200160002060003373ffffffffffffffffffffffffffffffffffffffff1673ffffffffffffffffffffffffffffffffffffffff16815260200190815260200160002060006101000a81548173ffffffffffffffffffffffffffffffffffffffff021916908373ffffffffffffffffffffffffffffffffffffffff160217905550505050565b60008060009054906101000a900473ffffffffffffffffffffffffffffffffffffffff16905090565b610b17610ed5565b610b2081610b95565b610b28610f91565b50565b610b33610ed5565b610b3d600761187a565b8111158015610b4c5750600081115b610b8b576040517f08c379a0000000000000000000000000000000000000000000000000000000008152600401610b82906125dc565b60405180910390fd5b8060028190555050565b610b9d610ed5565b610bb1816007610ea590919063ffffffff16565b15610bf1576040517f08c379a0000000000000000000000000000000000000000000000000000000008152600401610be89061266e565b60405180910390fd5b610c058160076118a690919063ffffffff16565b5050565b6000600560006003548152602001908152602001600020600084815260200190815260200160002060008373ffffffffffffffffffffffffffffffffffffffff1673ffffffffffffffffffffffffffffffffffffffff16815260200190815260200160002060009054906101000a900473ffffffffffffffffffffffffffffffffffffffff16905092915050565b610c9f610ed5565b600073ffffffffffffffffffffffffffffffffffffffff168173ffffffffffffffffffffffffffffffffffffffff161415610d0f576040517f08c379a0000000000000000000000000000000000000000000000000000000008152600401610d0690612700565b60405180910390fd5b610d1881610d1b565b50565b610d23610ae6565b73ffffffffffffffffffffffffffffffffffffffff168173ffffffffffffffffffffffffffffffffffffffff1614610e175760008060009054906101000a900473ffffffffffffffffffffffffffffffffffffffff169050816000806101000a81548173ffffffffffffffffffffffffffffffffffffffff021916908373ffffffffffffffffffffffffffffffffffffffff1602179055508173ffffffffffffffffffffffffffffffffffffffff168173ffffffffffffffffffffffffffffffffffffffff167f8be0079c531659141344cd1fd0a4f28419497f9722a3daafe3b4186f6b6457e060405160405180910390a3505b50565b60007f01ffc9a7000000000000000000000000000000000000000000000000000000007bffffffffffffffffffffffffffffffffffffffffffffffffffffffff1916827bffffffffffffffffffffffffffffffffffffffffffffffffffffffff1916149050919050565b60606000610e94836000016118d6565b905060608190508092505050919050565b6000610ecd836000018373ffffffffffffffffffffffffffffffffffffffff1660001b611932565b905092915050565b3373ffffffffffffffffffffffffffffffffffffffff16610ef4610ae6565b73ffffffffffffffffffffffffffffffffffffffff1614610f4a576040517f08c379a0000000000000000000000000000000000000000000000000000000008152600401610f419061276c565b60405180910390fd5b565b6060610f5a826000016118d6565b9050919050565b6000610f89836000018373ffffffffffffffffffffffffffffffffffffffff1660001b611955565b905092915050565b6000610f9d600761187a565b9050600080600283610faf91906127bb565b14610fd2576002600183610fc3919061281b565b610fcd9190612871565b610fe0565b600282610fdf9190612871565b5b905060008111610ff1576001610ff3565b805b6002819055505050565b60006003549050600080611011600761187a565b905060005b818110156110fc573373ffffffffffffffffffffffffffffffffffffffff16600560008681526020019081526020016000206000888152602001908152602001600020600061106f846007611a6990919063ffffffff16565b73ffffffffffffffffffffffffffffffffffffffff1673ffffffffffffffffffffffffffffffffffffffff16815260200190815260200160002060009054906101000a900473ffffffffffffffffffffffffffffffffffffffff1673ffffffffffffffffffffffffffffffffffffffff1614156110ef5782806001019350505b8080600101915050611016565b50600254821015611142576040517f08c379a0000000000000000000000000000000000000000000000000000000008152600401611139906128ee565b60405180910390fd5b600454846040516020016111569190612988565b60405160208183030381529060405280519060200120146111ac576040517f08c379a00000000000000000000000000000000000000000000000000000000081526004016111a3906129eb565b60405180910390fd5b5050505050565b6000806301ffc9a760e01b836040516024016111cf9190612a1a565b604051602081830303815290604052907bffffffffffffffffffffffffffffffffffffffffffffffffffffffff19166020820180517bffffffffffffffffffffffffffffffffffffffffffffffffffffffff838183161783525050505090506000808573ffffffffffffffffffffffffffffffffffffffff16617530846040516112599190612a7c565b6000604051808303818686fa925050503d8060008114611295576040519150601f19603f3d011682016040523d82523d6000602084013e61129a565b606091505b50915091506020815110156112b557600093505050506112d8565b8180156112d25750808060200190518101906112d19190612abf565b5b93505050505b92915050565b606080600367ffffffffffffffff8111156112fc576112fb611fda565b5b60405190808252806020026020018201604052801561132a5781602001602082028036833780820191505090505b509150600367ffffffffffffffff81111561134857611347611fda565b5b60405190808252806020026020018201604052801561137b57816020015b60608152602001906001900390816113665790505b50905060008573ffffffffffffffffffffffffffffffffffffffff166354f6127f7fdf30dba06db6a30e65354d9a64c609861f089545ca58c6b4dbe31a5f338cb0e360001b6040518263ffffffff1660e01b81526004016113dc9190611f7a565b60006040518083038186803b1580156113f457600080fd5b505afa158015611408573d6000803e3d6000fd5b505050506040513d6000823e3d601f19601f820116820180604052508101906114319190612b8d565b61143a90612c08565b60001c9050600060018261144e919061281b565b90507fdf30dba06db6a30e65354d9a64c609861f089545ca58c6b4dbe31a5f338cb0e360001b8460008151811061148857611487612c6f565b5b602002602001018181525050806040516020016114a59190612cbf565b604051602081830303815290604052836000815181106114c8576114c7612c6f565b5b60200260200101819052506115007fdf30dba06db6a30e65354d9a64c609861f089545ca58c6b4dbe31a5f338cb0e360001b83611a83565b8460018151811061151457611513612c6f565b5b602002602001018181525050856040516020016115319190612d22565b6040516020818303038152906040528360018151811061155457611553612c6f565b5b602002602001018190525061157b6b4b80742de2bf82acb363000060a01b8760601b611aa8565b8460028151811061158f5761158e612c6f565b5b60200260200101818152505084836002815181106115b0576115af612c6f565b5b60200260200101819052505050935093915050565b6060600083836040516024016115dc929190612e49565b6040516020818303038152906040527f14a6e293000000000000000000000000000000000000000000000000000000006020820180517bffffffffffffffffffffffffffffffffffffffffffffffffffffffff838183161783525050505090508473ffffffffffffffffffffffffffffffffffffffff166309c5eabe826040518263ffffffff1660e01b81526004016116759190612eca565b600060405180830381600087803b15801561168f57600080fd5b505af11580156116a3573d6000803e3d6000fd5b505050506040513d6000823e3d601f19601f820116820180604052508101906116cc9190612b8d565b9150509392505050565b60006116e2600761187a565b90506002811015611728576040517f08c379a000000000000000000000000000000000000000000000000000000000815260040161171f90612f5e565b60405180910390fd5b6000600354905060008061173c600761187a565b905060005b81811015611827573373ffffffffffffffffffffffffffffffffffffffff16600560008681526020019081526020016000206000888152602001908152602001600020600061179a846007611a6990919063ffffffff16565b73ffffffffffffffffffffffffffffffffffffffff1673ffffffffffffffffffffffffffffffffffffffff16815260200190815260200160002060009054906101000a900473ffffffffffffffffffffffffffffffffffffffff1673ffffffffffffffffffffffffffffffffffffffff16141561181a5782806001019350505b8080600101915050611741565b50611832600761187a565b8214611873576040517f08c379a000000000000000000000000000000000000000000000000000000000815260040161186a90612ff0565b60405180910390fd5b5050505050565b600061188882600001611ae2565b9050919050565b600061189e8360000183611af3565b905092915050565b60006118ce836000018373ffffffffffffffffffffffffffffffffffffffff1660001b611af3565b905092915050565b60608160000180548060200260200160405190810160405280929190818152602001828054801561192657602002820191906000526020600020905b815481526020019060010190808311611912575b50505050509050919050565b600080836001016000848152602001908152602001600020541415905092915050565b60008083600101600084815260200190815260200160002054905060008114611a5d5760006001826119879190613010565b905060006001866000018054905061199f9190613010565b9050818114611a0e5760008660000182815481106119c0576119bf612c6f565b5b90600052602060002001549050808760000184815481106119e4576119e3612c6f565b5b90600052602060002001819055508387600101600083815260200190815260200160002081905550505b85600001805480611a2257611a21613044565b5b600190038181906000526020600020016000905590558560010160008681526020019081526020016000206000905560019350505050611a63565b60009150505b92915050565b6000611a788360000183611b63565b60001c905092915050565b600080611a93848460801b611b8e565b905080611a9f90612c08565b91505092915050565b6000808383604051602001611abe92919061310d565b604051602081830303815290604052905080611ad990612c08565b91505092915050565b600081600001805490509050919050565b6000611aff8383611932565b611b58578260000182908060018154018082558091505060019003906000526020600020016000909190919091505582600001805490508360010160008481526020019081526020016000208190555060019050611b5d565b600090505b92915050565b6000826000018281548110611b7b57611b7a612c6f565b5b9060005260206000200154905092915050565b60608282604051602001611ba3929190613186565b604051602081830303815290604052905092915050565b6000604051905090565b600080fd5b600080fd5b60007fffffffff0000000000000000000000000000000000000000000000000000000082169050919050565b611c0381611bce565b8114611c0e57600080fd5b50565b600081359050611c2081611bfa565b92915050565b600060208284031215611c3c57611c3b611bc4565b5b6000611c4a84828501611c11565b91505092915050565b60008115159050919050565b611c6881611c53565b82525050565b6000602082019050611c836000830184611c5f565b92915050565b600081519050919050565b600082825260208201905092915050565b6000819050602082019050919050565b600073ffffffffffffffffffffffffffffffffffffffff82169050919050565b6000611ce082611cb5565b9050919050565b611cf081611cd5565b82525050565b6000611d028383611ce7565b60208301905092915050565b6000602082019050919050565b6000611d2682611c89565b611d308185611c94565b9350611d3b83611ca5565b8060005b83811015611d6c578151611d538882611cf6565b9750611d5e83611d0e565b925050600181019050611d3f565b5085935050505092915050565b60006020820190508181036000830152611d938184611d1b565b905092915050565b611da481611cd5565b8114611daf57600080fd5b50565b600081359050611dc181611d9b565b92915050565b600060208284031215611ddd57611ddc611bc4565b5b6000611deb84828501611db2565b91505092915050565b6000819050919050565b611e0781611df4565b82525050565b6000602082019050611e226000830184611dfe565b92915050565b6000819050919050565b611e3b81611e28565b8114611e4657600080fd5b50565b600081359050611e5881611e32565b92915050565b600060208284031215611e7457611e73611bc4565b5b6000611e8284828501611e49565b91505092915050565b600081519050919050565b600082825260208201905092915050565b6000819050602082019050919050565b611ec081611e28565b82525050565b6000611ed28383611eb7565b60208301905092915050565b6000602082019050919050565b6000611ef682611e8b565b611f008185611e96565b9350611f0b83611ea7565b8060005b83811015611f3c578151611f238882611ec6565b9750611f2e83611ede565b925050600181019050611f0f565b5085935050505092915050565b60006020820190508181036000830152611f638184611eeb565b905092915050565b611f7481611e28565b82525050565b6000602082019050611f8f6000830184611f6b565b92915050565b611f9e81611cd5565b82525050565b6000602082019050611fb96000830184611f95565b92915050565b600080fd5b600080fd5b6000601f19601f8301169050919050565b7f4e487b7100000000000000000000000000000000000000000000000000000000600052604160045260246000fd5b61201282611fc9565b810181811067ffffffffffffffff8211171561203157612030611fda565b5b80604052505050565b6000612044611bba565b90506120508282612009565b919050565b600067ffffffffffffffff8211156120705761206f611fda565b5b61207982611fc9565b9050602081019050919050565b82818337600083830152505050565b60006120a86120a384612055565b61203a565b9050828152602081018484840111156120c4576120c3611fc4565b5b6120cf848285612086565b509392505050565b600082601f8301126120ec576120eb611fbf565b5b81356120fc848260208601612095565b91505092915050565b60008060006060848603121561211e5761211d611bc4565b5b600061212c86828701611e49565b935050602084013567ffffffffffffffff81111561214d5761214c611bc9565b5b612159868287016120d7565b925050604061216a86828701611e49565b9150509250925092565b6000806040838503121561218b5761218a611bc4565b5b600061219985828601611e49565b92505060206121aa85828601611e49565b9150509250929050565b600080604083850312156121cb576121ca611bc4565b5b60006121d985828601611e49565b92505060206121ea85828601611db2565b9150509250929050565b6121fd81611df4565b811461220857600080fd5b50565b60008135905061221a816121f4565b92915050565b60006020828403121561223657612235611bc4565b5b60006122448482850161220b565b91505092915050565b600082825260208201905092915050565b7f53656372657420486173682063616e6e6f742062652062797465733332283029600082015250565b600061229460208361224d565b915061229f8261225e565b602082019050919050565b600060208201905081810360008301526122c381612287565b9050919050565b7f50726f76696465642061646472657373206973206e6f7420612067756172646960008201527f616e000000000000000000000000000000000000000000000000000000000000602082015250565b600061232660228361224d565b9150612331826122ca565b604082019050919050565b6000602082019050818103600083015261235581612319565b9050919050565b60008151905061236b81611d9b565b92915050565b60006020828403121561238757612386611bc4565b5b60006123958482850161235c565b91505092915050565b7f4f776e6572206f66206163636f756e7420646f65736e277420737570706f727460008201527f204c53503620496e746572666163654964000000000000000000000000000000602082015250565b60006123fa60318361224d565b91506124058261239e565b604082019050919050565b60006020820190508181036000830152612429816123ed565b9050919050565b6000819050919050565b61244b61244682611e28565b612430565b82525050565b600061245d828461243a565b60208201915081905092915050565b7f477561726469616e73206e756d6265722063616e206e6f74206265206c6f776560008201527f72207468616e20746865207468726573686f6c64000000000000000000000000602082015250565b60006124c860348361224d565b91506124d38261246c565b604082019050919050565b600060208201905081810360008301526124f7816124bb565b9050919050565b7f43616c6c6572206973206e6f74206120677561726469616e0000000000000000600082015250565b600061253460188361224d565b915061253f826124fe565b602082019050919050565b6000602082019050818103600083015261256381612527565b9050919050565b7f5468726573686f6c642073686f756c64206265206265747765656e203120616e60008201527f642074686520677561726469616e73436f756e74000000000000000000000000602082015250565b60006125c660348361224d565b91506125d18261256a565b604082019050919050565b600060208201905081810360008301526125f5816125b9565b9050919050565b7f50726f7669646564206164647265737320697320616c7265616479206120677560008201527f61726469616e0000000000000000000000000000000000000000000000000000602082015250565b600061265860268361224d565b9150612663826125fc565b604082019050919050565b600060208201905081810360008301526126878161264b565b9050919050565b7f4f776e61626c653a206e6577206f776e657220697320746865207a65726f206160008201527f6464726573730000000000000000000000000000000000000000000000000000602082015250565b60006126ea60268361224d565b91506126f58261268e565b604082019050919050565b60006020820190508181036000830152612719816126dd565b9050919050565b7f4f776e61626c653a2063616c6c6572206973206e6f7420746865206f776e6572600082015250565b600061275660208361224d565b915061276182612720565b602082019050919050565b6000602082019050818103600083015261278581612749565b9050919050565b7f4e487b7100000000000000000000000000000000000000000000000000000000600052601260045260246000fd5b60006127c682611df4565b91506127d183611df4565b9250826127e1576127e061278c565b5b828206905092915050565b7f4e487b7100000000000000000000000000000000000000000000000000000000600052601160045260246000fd5b600061282682611df4565b915061283183611df4565b9250827fffffffffffffffffffffffffffffffffffffffffffffffffffffffffffffffff03821115612866576128656127ec565b5b828201905092915050565b600061287c82611df4565b915061288783611df4565b9250826128975761289661278c565b5b828204905092915050565b7f596f75206469646e7420726561636820746865207468726573686f6c64000000600082015250565b60006128d8601d8361224d565b91506128e3826128a2565b602082019050919050565b60006020820190508181036000830152612907816128cb565b9050919050565b600081519050919050565b600081905092915050565b60005b83811015612942578082015181840152602081019050612927565b83811115612951576000848401525b50505050565b60006129628261290e565b61296c8185612919565b935061297c818560208601612924565b80840191505092915050565b60006129948284612957565b915081905092915050565b7f57726f6e67207365637265740000000000000000000000000000000000000000600082015250565b60006129d5600c8361224d565b91506129e08261299f565b602082019050919050565b60006020820190508181036000830152612a04816129c8565b9050919050565b612a1481611bce565b82525050565b6000602082019050612a2f6000830184612a0b565b92915050565b600081519050919050565b600081905092915050565b6000612a5682612a35565b612a608185612a40565b9350612a70818560208601612924565b80840191505092915050565b6000612a888284612a4b565b915081905092915050565b612a9c81611c53565b8114612aa757600080fd5b50565b600081519050612ab981612a93565b92915050565b600060208284031215612ad557612ad4611bc4565b5b6000612ae384828501612aaa565b91505092915050565b600067ffffffffffffffff821115612b0757612b06611fda565b5b612b1082611fc9565b9050602081019050919050565b6000612b30612b2b84612aec565b61203a565b905082815260208101848484011115612b4c57612b4b611fc4565b5b612b57848285612924565b509392505050565b600082601f830112612b7457612b73611fbf565b5b8151612b84848260208601612b1d565b91505092915050565b600060208284031215612ba357612ba2611bc4565b5b600082015167ffffffffffffffff811115612bc157612bc0611bc9565b5b612bcd84828501612b5f565b91505092915050565b6000819050602082019050919050565b6000612bf28251611e28565b80915050919050565b600082821b905092915050565b6000612c1382612a35565b82612c1d84612bd6565b9050612c2881612be6565b92506020821015612c6857612c637fffffffffffffffffffffffffffffffffffffffffffffffffffffffffffffffff83602003600802612bfb565b831692505b5050919050565b7f4e487b7100000000000000000000000000000000000000000000000000000000600052603260045260246000fd5b6000819050919050565b612cb9612cb482611df4565b612c9e565b82525050565b6000612ccb8284612ca8565b60208201915081905092915050565b60008160601b9050919050565b6000612cf282612cda565b9050919050565b6000612d0482612ce7565b9050919050565b612d1c612d1782611cd5565b612cf9565b82525050565b6000612d2e8284612d0b565b60148201915081905092915050565b600081519050919050565b600082825260208201905092915050565b6000819050602082019050919050565b600082825260208201905092915050565b6000612d8582612a35565b612d8f8185612d69565b9350612d9f818560208601612924565b612da881611fc9565b840191505092915050565b6000612dbf8383612d7a565b905092915050565b6000602082019050919050565b6000612ddf82612d3d565b612de98185612d48565b935083602082028501612dfb85612d59565b8060005b85811015612e375784840389528151612e188582612db3565b9450612e2383612dc7565b925060208a01995050600181019050612dff565b50829750879550505050505092915050565b60006040820190508181036000830152612e638185611eeb565b90508181036020830152612e778184612dd4565b90509392505050565b600082825260208201905092915050565b6000612e9c82612a35565b612ea68185612e80565b9350612eb6818560208601612924565b612ebf81611fc9565b840191505092915050565b60006020820190508181036000830152612ee48184612e91565b905092915050565b7f4d696e696d756d20677561726469616e7320636f756e7420746f207265636f7660008201527f657220776974686f757420736563726574206973203200000000000000000000602082015250565b6000612f4860368361224d565b9150612f5382612eec565b604082019050919050565b60006020820190508181036000830152612f7781612f3b565b9050919050565b7f416c6c20677561726469616e73206e6565647320746f20766f746520666f722060008201527f796f750000000000000000000000000000000000000000000000000000000000602082015250565b6000612fda60238361224d565b9150612fe582612f7e565b604082019050919050565b6000602082019050818103600083015261300981612fcd565b9050919050565b600061301b82611df4565b915061302683611df4565b925082821015613039576130386127ec565b5b828203905092915050565b7f4e487b7100000000000000000000000000000000000000000000000000000000600052603160045260246000fd5b60007fffffffffffffffffffffffff000000000000000000000000000000000000000082169050919050565b6000819050919050565b6130ba6130b582613073565b61309f565b82525050565b60007fffffffffffffffffffffffffffffffffffffffff00000000000000000000000082169050919050565b6000819050919050565b613107613102826130c0565b6130ec565b82525050565b600061311982856130a9565b600c8201915061312982846130f6565b6014820191508190509392505050565b60007fffffffffffffffffffffffffffffffff0000000000000000000000000000000082169050919050565b6000819050919050565b61318061317b82613139565b613165565b82525050565b6000613192828561316f565b6010820191506131a2828461316f565b601082019150819050939250505056fea2646970667358221220b16fa98656a5722f1dea8be5a44400790c9f88dcc70da3caf62c97f439ad712e64736f6c63430008090033",
  "linkReferences": {},
  "deployedLinkReferences": {}
}