{
  "_format": "hh-sol-artifact-1",
  "contractName": "SocialRecovery",
  "sourceName": "contracts/SocialRecovery.sol",
  "abi": [
    {
      "inputs": [
        {
          "internalType": "bytes32",
          "name": "_initialSecretHash",
          "type": "bytes32"
        }
      ],
      "stateMutability": "nonpayable",
      "type": "constructor"
    },
    {
      "anonymous": false,
      "inputs": [
        {
          "indexed": true,
          "internalType": "address",
          "name": "previousOwner",
          "type": "address"
        },
        {
          "indexed": true,
          "internalType": "address",
          "name": "newOwner",
          "type": "address"
        }
      ],
      "name": "OwnershipTransferred",
      "type": "event"
    },
    {
      "inputs": [],
      "name": "account",
      "outputs": [
        {
          "internalType": "address",
          "name": "",
          "type": "address"
        }
      ],
      "stateMutability": "view",
      "type": "function"
    },
    {
      "inputs": [
        {
          "internalType": "address",
          "name": "newGuardian",
          "type": "address"
        }
      ],
      "name": "addGuardian",
      "outputs": [],
      "stateMutability": "nonpayable",
      "type": "function"
    },
    {
      "inputs": [
        {
          "internalType": "address",
          "name": "newGuardian",
          "type": "address"
        }
      ],
      "name": "addGuardianWithThresholdUpdate",
      "outputs": [],
      "stateMutability": "nonpayable",
      "type": "function"
    },
    {
      "inputs": [
        {
          "internalType": "bytes32",
          "name": "recoverProcessId",
          "type": "bytes32"
        },
        {
          "internalType": "address",
          "name": "guardian",
          "type": "address"
        }
      ],
      "name": "getGuardianVote",
      "outputs": [
        {
          "internalType": "address",
          "name": "",
          "type": "address"
        }
      ],
      "stateMutability": "view",
      "type": "function"
    },
    {
      "inputs": [],
      "name": "getGuardians",
      "outputs": [
        {
          "internalType": "address[]",
          "name": "",
          "type": "address[]"
        }
      ],
      "stateMutability": "view",
      "type": "function"
    },
    {
      "inputs": [],
      "name": "getGuardiansThreshold",
      "outputs": [
        {
          "internalType": "uint256",
          "name": "",
          "type": "uint256"
        }
      ],
      "stateMutability": "view",
      "type": "function"
    },
    {
      "inputs": [],
      "name": "getKeyManager",
      "outputs": [
        {
          "internalType": "address",
          "name": "",
          "type": "address"
        }
      ],
      "stateMutability": "view",
      "type": "function"
    },
    {
      "inputs": [],
      "name": "getRecoverProcessesIds",
      "outputs": [
        {
          "internalType": "bytes32[]",
          "name": "",
          "type": "bytes32[]"
        }
      ],
      "stateMutability": "view",
      "type": "function"
    },
    {
      "inputs": [],
      "name": "getSecretHash",
      "outputs": [
        {
          "internalType": "bytes32",
          "name": "",
          "type": "bytes32"
        }
      ],
      "stateMutability": "view",
      "type": "function"
    },
    {
      "inputs": [
        {
          "internalType": "bytes32",
          "name": "dataKey",
          "type": "bytes32"
        },
        {
          "internalType": "bytes",
          "name": "dataValue",
          "type": "bytes"
        }
      ],
      "name": "grantPermissionsToContract",
      "outputs": [],
      "stateMutability": "nonpayable",
      "type": "function"
    },
    {
      "inputs": [
        {
          "internalType": "address",
          "name": "_address",
          "type": "address"
        }
      ],
      "name": "isGuardian",
      "outputs": [
        {
          "internalType": "bool",
          "name": "",
          "type": "bool"
        }
      ],
      "stateMutability": "view",
      "type": "function"
    },
    {
      "inputs": [],
      "name": "owner",
      "outputs": [
        {
          "internalType": "address",
          "name": "",
          "type": "address"
        }
      ],
      "stateMutability": "view",
      "type": "function"
    },
    {
      "inputs": [
        {
          "internalType": "bytes32",
          "name": "recoverProcessId",
          "type": "bytes32"
        },
        {
          "internalType": "string",
          "name": "plainSecret",
          "type": "string"
        },
        {
          "internalType": "bytes32",
          "name": "newHash",
          "type": "bytes32"
        }
      ],
      "name": "recoverOwnership",
      "outputs": [],
      "stateMutability": "nonpayable",
      "type": "function"
    },
    {
      "inputs": [
        {
          "internalType": "bytes32",
          "name": "recoverProcessId",
          "type": "bytes32"
        },
        {
          "internalType": "bytes32",
          "name": "newHash",
          "type": "bytes32"
        }
      ],
      "name": "recoverOwnershipWithoutSecret",
      "outputs": [],
      "stateMutability": "nonpayable",
      "type": "function"
    },
    {
      "inputs": [
        {
          "internalType": "address",
          "name": "currentGuardian",
          "type": "address"
        }
      ],
      "name": "removeGuardian",
      "outputs": [],
      "stateMutability": "nonpayable",
      "type": "function"
    },
    {
      "inputs": [
        {
          "internalType": "address",
          "name": "guardian",
          "type": "address"
        }
      ],
      "name": "removeGuardianWithThresholdUpdate",
      "outputs": [],
      "stateMutability": "nonpayable",
      "type": "function"
    },
    {
      "inputs": [],
      "name": "renounceOwnership",
      "outputs": [],
      "stateMutability": "nonpayable",
      "type": "function"
    },
    {
      "inputs": [
        {
          "internalType": "bytes32",
          "name": "newHash",
          "type": "bytes32"
        }
      ],
      "name": "setSecret",
      "outputs": [],
      "stateMutability": "nonpayable",
      "type": "function"
    },
    {
      "inputs": [
        {
          "internalType": "uint256",
          "name": "newThreshold",
          "type": "uint256"
        }
      ],
      "name": "setThreshold",
      "outputs": [],
      "stateMutability": "nonpayable",
      "type": "function"
    },
    {
      "inputs": [
        {
          "internalType": "bytes4",
          "name": "_interfaceId",
          "type": "bytes4"
        }
      ],
      "name": "supportsInterface",
      "outputs": [
        {
          "internalType": "bool",
          "name": "",
          "type": "bool"
        }
      ],
      "stateMutability": "view",
      "type": "function"
    },
    {
      "inputs": [
        {
          "internalType": "address",
          "name": "newOwner",
          "type": "address"
        }
      ],
      "name": "transferOwnership",
      "outputs": [],
      "stateMutability": "nonpayable",
      "type": "function"
    },
    {
      "inputs": [
        {
          "internalType": "bytes32",
          "name": "recoverProcessId",
          "type": "bytes32"
        },
        {
          "internalType": "address",
          "name": "newOwner",
          "type": "address"
        }
      ],
      "name": "voteToRecover",
      "outputs": [],
      "stateMutability": "nonpayable",
      "type": "function"
    }
  ],
  "bytecode": "0x60806040523480156200001157600080fd5b50604051620036ab380380620036ab833981810160405281019062000037919062000215565b33600160006101000a81548173ffffffffffffffffffffffffffffffffffffffff021916908373ffffffffffffffffffffffffffffffffffffffff1602179055506200008e33620000a460201b62000e8b1760201c565b8060048190555060016002819055505062000247565b620000b4620001ac60201b60201c565b73ffffffffffffffffffffffffffffffffffffffff168173ffffffffffffffffffffffffffffffffffffffff1614620001a95760008060009054906101000a900473ffffffffffffffffffffffffffffffffffffffff169050816000806101000a81548173ffffffffffffffffffffffffffffffffffffffff021916908373ffffffffffffffffffffffffffffffffffffffff1602179055508173ffffffffffffffffffffffffffffffffffffffff168173ffffffffffffffffffffffffffffffffffffffff167f8be0079c531659141344cd1fd0a4f28419497f9722a3daafe3b4186f6b6457e060405160405180910390a3505b50565b60008060009054906101000a900473ffffffffffffffffffffffffffffffffffffffff16905090565b600080fd5b6000819050919050565b620001ef81620001da565b8114620001fb57600080fd5b50565b6000815190506200020f81620001e4565b92915050565b6000602082840312156200022e576200022d620001d5565b5b60006200023e84828501620001fe565b91505092915050565b61345480620002576000396000f3fe608060405234801561001057600080fd5b50600436106101425760003560e01c80636c34e92b116100b8578063930c1a271161007c578063930c1a271461032b578063960bfe0414610347578063a526d83b14610363578063a5b96cdc1461037f578063d4adf3621461039b578063f2fde38b146103cb57610142565b80636c34e92b146102af57806371404156146102cb578063715018a6146102e75780637a118daf146102f15780638da5cb5b1461030d57610142565b80633f6e97491161010a5780633f6e9749146101ff578063443ace441461021d5780634b0cfc00146102395780635d7df90c146102575780635dab242014610275578063624d7ffb1461029357610142565b806301ffc9a7146101475780630665f04b146101775780630c68ba2114610195578063187c5348146101c557806335a9c82f146101e3575b600080fd5b610161600480360381019061015c9190611d96565b6103e7565b60405161016e9190611dde565b60405180910390f35b61017f610448565b60405161018c9190611ee9565b60405180910390f35b6101af60048036038101906101aa9190611f37565b610459565b6040516101bc9190611dde565b60405180910390f35b6101cd610476565b6040516101da9190611f7d565b60405180910390f35b6101fd60048036038101906101f89190611fce565b610480565b005b6102076104da565b60405161021491906120b9565b60405180910390f35b61023760048036038101906102329190611f37565b6104fe565b005b610241610579565b60405161024e91906120ea565b60405180910390f35b61025f610620565b60405161026c9190612114565b60405180910390f35b61027d61062a565b60405161028a91906120ea565b60405180910390f35b6102ad60048036038101906102a89190612275565b610650565b005b6102c960048036038101906102c491906122e4565b61081b565b005b6102e560048036038101906102e09190611f37565b6109e4565b005b6102ef610aa4565b005b61030b60048036038101906103069190612324565b610ab8565b005b610315610bdd565b60405161032291906120ea565b60405180910390f35b61034560048036038101906103409190611f37565b610c06565b005b610361600480360381019061035c9190612390565b610c22565b005b61037d60048036038101906103789190611f37565b610c8c565b005b6103996004803603810190610394919061245e565b610d00565b005b6103b560048036038101906103b09190612324565b610d79565b6040516103c291906120ea565b60405180910390f35b6103e560048036038101906103e09190611f37565b610e07565b005b600063cb81043b60e01b7bffffffffffffffffffffffffffffffffffffffffffffffffffffffff1916827bffffffffffffffffffffffffffffffffffffffffffffffffffffffff19161480610441575061044082610f8a565b5b9050919050565b60606104546007610ff4565b905090565b600061046f82600761101590919063ffffffff16565b9050919050565b6000600254905090565b610488611045565b806000801b8114156104cf576040517f08c379a00000000000000000000000000000000000000000000000000000000081526004016104c690612517565b60405180910390fd5b816004819055505050565b60606104f96006600060035481526020019081526020016000206110bc565b905090565b610506611045565b61051a81600761101590919063ffffffff16565b610559576040517f08c379a0000000000000000000000000000000000000000000000000000000008152600401610550906125a9565b60405180910390fd5b61056d8160076110d190919063ffffffff16565b50610576611101565b50565b6000600160009054906101000a900473ffffffffffffffffffffffffffffffffffffffff1673ffffffffffffffffffffffffffffffffffffffff16638da5cb5b6040518163ffffffff1660e01b815260040160206040518083038186803b1580156105e357600080fd5b505afa1580156105f7573d6000803e3d6000fd5b505050506040513d601f19601f8201168201806040525081019061061b91906125de565b905090565b6000600454905090565b600160009054906101000a900473ffffffffffffffffffffffffffffffffffffffff1681565b806000801b811415610697576040517f08c379a000000000000000000000000000000000000000000000000000000000815260040161068e90612517565b60405180910390fd5b6106a1848461116d565b816004819055506003600081548092919060010191905055506000600160009054906101000a900473ffffffffffffffffffffffffffffffffffffffff1673ffffffffffffffffffffffffffffffffffffffff16638da5cb5b6040518163ffffffff1660e01b815260040160206040518083038186803b15801561072457600080fd5b505afa158015610738573d6000803e3d6000fd5b505050506040513d601f19601f8201168201806040525081019061075c91906125de565b905061076f8163c403d48f60e01b611323565b6107ae576040517f08c379a00000000000000000000000000000000000000000000000000000000081526004016107a59061267d565b60405180910390fd5b600080610802600160009054906101000a900473ffffffffffffffffffffffffffffffffffffffff1633617fbf60001b6040516020016107ee91906126be565b60405160208183030381529060405261144e565b91509150610811838383611735565b5050505050505050565b806000801b811415610862576040517f08c379a000000000000000000000000000000000000000000000000000000000815260040161085990612517565b60405180910390fd5b61086b83611846565b816004819055506003600081548092919060010191905055506000600160009054906101000a900473ffffffffffffffffffffffffffffffffffffffff1673ffffffffffffffffffffffffffffffffffffffff16638da5cb5b6040518163ffffffff1660e01b815260040160206040518083038186803b1580156108ee57600080fd5b505afa158015610902573d6000803e3d6000fd5b505050506040513d601f19601f8201168201806040525081019061092691906125de565b90506109398163c403d48f60e01b611323565b610978576040517f08c379a000000000000000000000000000000000000000000000000000000000815260040161096f9061267d565b60405180910390fd5b6000806109cc600160009054906101000a900473ffffffffffffffffffffffffffffffffffffffff1633617fbf60001b6040516020016109b891906126be565b60405160208183030381529060405261144e565b915091506109db838383611735565b50505050505050565b6109ec611045565b610a0081600761101590919063ffffffff16565b610a3f576040517f08c379a0000000000000000000000000000000000000000000000000000000008152600401610a36906125a9565b60405180910390fd5b600254610a4c60076119ea565b11610a8c576040517f08c379a0000000000000000000000000000000000000000000000000000000008152600401610a839061274b565b60405180910390fd5b610aa08160076110d190919063ffffffff16565b5050565b610aac611045565b610ab66000610e8b565b565b610acc33600761101590919063ffffffff16565b610b0b576040517f08c379a0000000000000000000000000000000000000000000000000000000008152600401610b02906127b7565b60405180910390fd5b60006003549050610b3783600660008481526020019081526020016000206119ff90919063ffffffff16565b508160056000838152602001908152602001600020600085815260200190815260200160002060003373ffffffffffffffffffffffffffffffffffffffff1673ffffffffffffffffffffffffffffffffffffffff16815260200190815260200160002060006101000a81548173ffffffffffffffffffffffffffffffffffffffff021916908373ffffffffffffffffffffffffffffffffffffffff160217905550505050565b60008060009054906101000a900473ffffffffffffffffffffffffffffffffffffffff16905090565b610c0e611045565b610c1781610c8c565b610c1f611101565b50565b610c2a611045565b610c3460076119ea565b8111158015610c435750600081115b610c82576040517f08c379a0000000000000000000000000000000000000000000000000000000008152600401610c7990612849565b60405180910390fd5b8060028190555050565b610c94611045565b610ca881600761101590919063ffffffff16565b15610ce8576040517f08c379a0000000000000000000000000000000000000000000000000000000008152600401610cdf906128db565b60405180910390fd5b610cfc816007611a1690919063ffffffff16565b5050565b610d08611045565b3373ffffffffffffffffffffffffffffffffffffffff16637f23690c83836040518363ffffffff1660e01b8152600401610d43929190612983565b600060405180830381600087803b158015610d5d57600080fd5b505af1158015610d71573d6000803e3d6000fd5b505050505050565b6000600560006003548152602001908152602001600020600084815260200190815260200160002060008373ffffffffffffffffffffffffffffffffffffffff1673ffffffffffffffffffffffffffffffffffffffff16815260200190815260200160002060009054906101000a900473ffffffffffffffffffffffffffffffffffffffff16905092915050565b610e0f611045565b600073ffffffffffffffffffffffffffffffffffffffff168173ffffffffffffffffffffffffffffffffffffffff161415610e7f576040517f08c379a0000000000000000000000000000000000000000000000000000000008152600401610e7690612a25565b60405180910390fd5b610e8881610e8b565b50565b610e93610bdd565b73ffffffffffffffffffffffffffffffffffffffff168173ffffffffffffffffffffffffffffffffffffffff1614610f875760008060009054906101000a900473ffffffffffffffffffffffffffffffffffffffff169050816000806101000a81548173ffffffffffffffffffffffffffffffffffffffff021916908373ffffffffffffffffffffffffffffffffffffffff1602179055508173ffffffffffffffffffffffffffffffffffffffff168173ffffffffffffffffffffffffffffffffffffffff167f8be0079c531659141344cd1fd0a4f28419497f9722a3daafe3b4186f6b6457e060405160405180910390a3505b50565b60007f01ffc9a7000000000000000000000000000000000000000000000000000000007bffffffffffffffffffffffffffffffffffffffffffffffffffffffff1916827bffffffffffffffffffffffffffffffffffffffffffffffffffffffff1916149050919050565b6060600061100483600001611a46565b905060608190508092505050919050565b600061103d836000018373ffffffffffffffffffffffffffffffffffffffff1660001b611aa2565b905092915050565b3373ffffffffffffffffffffffffffffffffffffffff16611064610bdd565b73ffffffffffffffffffffffffffffffffffffffff16146110ba576040517f08c379a00000000000000000000000000000000000000000000000000000000081526004016110b190612a91565b60405180910390fd5b565b60606110ca82600001611a46565b9050919050565b60006110f9836000018373ffffffffffffffffffffffffffffffffffffffff1660001b611ac5565b905092915050565b600061110d60076119ea565b905060008060028361111f9190612ae0565b146111425760026001836111339190612b40565b61113d9190612b96565b611150565b60028261114f9190612b96565b5b905060008111611161576001611163565b805b6002819055505050565b6000600354905060008061118160076119ea565b905060005b8181101561126c573373ffffffffffffffffffffffffffffffffffffffff1660056000868152602001908152602001600020600088815260200190815260200160002060006111df846007611bd990919063ffffffff16565b73ffffffffffffffffffffffffffffffffffffffff1673ffffffffffffffffffffffffffffffffffffffff16815260200190815260200160002060009054906101000a900473ffffffffffffffffffffffffffffffffffffffff1673ffffffffffffffffffffffffffffffffffffffff16141561125f5782806001019350505b8080600101915050611186565b506002548210156112b2576040517f08c379a00000000000000000000000000000000000000000000000000000000081526004016112a990612c13565b60405180910390fd5b600454846040516020016112c69190612c7a565b604051602081830303815290604052805190602001201461131c576040517f08c379a000000000000000000000000000000000000000000000000000000000815260040161131390612cdd565b60405180910390fd5b5050505050565b6000806301ffc9a760e01b8360405160240161133f9190612d0c565b604051602081830303815290604052907bffffffffffffffffffffffffffffffffffffffffffffffffffffffff19166020820180517bffffffffffffffffffffffffffffffffffffffffffffffffffffffff838183161783525050505090506000808573ffffffffffffffffffffffffffffffffffffffff16617530846040516113c99190612d63565b6000604051808303818686fa925050503d8060008114611405576040519150601f19603f3d011682016040523d82523d6000602084013e61140a565b606091505b50915091506020815110156114255760009350505050611448565b8180156114425750808060200190518101906114419190612da6565b5b93505050505b92915050565b606080600367ffffffffffffffff81111561146c5761146b61214a565b5b60405190808252806020026020018201604052801561149a5781602001602082028036833780820191505090505b509150600367ffffffffffffffff8111156114b8576114b761214a565b5b6040519080825280602002602001820160405280156114eb57816020015b60608152602001906001900390816114d65790505b50905060008573ffffffffffffffffffffffffffffffffffffffff166354f6127f7fdf30dba06db6a30e65354d9a64c609861f089545ca58c6b4dbe31a5f338cb0e360001b6040518263ffffffff1660e01b815260040161154c9190612114565b60006040518083038186803b15801561156457600080fd5b505afa158015611578573d6000803e3d6000fd5b505050506040513d6000823e3d601f19601f820116820180604052508101906115a19190612e43565b6115aa90612ebe565b60001c905060006001826115be9190612b40565b90507fdf30dba06db6a30e65354d9a64c609861f089545ca58c6b4dbe31a5f338cb0e360001b846000815181106115f8576115f7612f25565b5b602002602001018181525050806040516020016116159190612f75565b6040516020818303038152906040528360008151811061163857611637612f25565b5b60200260200101819052506116707fdf30dba06db6a30e65354d9a64c609861f089545ca58c6b4dbe31a5f338cb0e360001b83611bf3565b8460018151811061168457611683612f25565b5b602002602001018181525050856040516020016116a19190612fd8565b604051602081830303815290604052836001815181106116c4576116c3612f25565b5b60200260200101819052506116eb6b4b80742de2bf82acb363000060a01b8760601b611c18565b846002815181106116ff576116fe612f25565b5b60200260200101818152505084836002815181106117205761171f612f25565b5b60200260200101819052505050935093915050565b60606000838360405160240161174c9291906130ff565b6040516020818303038152906040527f14a6e293000000000000000000000000000000000000000000000000000000006020820180517bffffffffffffffffffffffffffffffffffffffffffffffffffffffff838183161783525050505090508473ffffffffffffffffffffffffffffffffffffffff166309c5eabe826040518263ffffffff1660e01b81526004016117e59190613136565b600060405180830381600087803b1580156117ff57600080fd5b505af1158015611813573d6000803e3d6000fd5b505050506040513d6000823e3d601f19601f8201168201806040525081019061183c9190612e43565b9150509392505050565b600061185260076119ea565b90506002811015611898576040517f08c379a000000000000000000000000000000000000000000000000000000000815260040161188f906131ca565b60405180910390fd5b600060035490506000806118ac60076119ea565b905060005b81811015611997573373ffffffffffffffffffffffffffffffffffffffff16600560008681526020019081526020016000206000888152602001908152602001600020600061190a846007611bd990919063ffffffff16565b73ffffffffffffffffffffffffffffffffffffffff1673ffffffffffffffffffffffffffffffffffffffff16815260200190815260200160002060009054906101000a900473ffffffffffffffffffffffffffffffffffffffff1673ffffffffffffffffffffffffffffffffffffffff16141561198a5782806001019350505b80806001019150506118b1565b506119a260076119ea565b82146119e3576040517f08c379a00000000000000000000000000000000000000000000000000000000081526004016119da9061325c565b60405180910390fd5b5050505050565b60006119f882600001611c52565b9050919050565b6000611a0e8360000183611c63565b905092915050565b6000611a3e836000018373ffffffffffffffffffffffffffffffffffffffff1660001b611c63565b905092915050565b606081600001805480602002602001604051908101604052809291908181526020018280548015611a9657602002820191906000526020600020905b815481526020019060010190808311611a82575b50505050509050919050565b600080836001016000848152602001908152602001600020541415905092915050565b60008083600101600084815260200190815260200160002054905060008114611bcd576000600182611af7919061327c565b9050600060018660000180549050611b0f919061327c565b9050818114611b7e576000866000018281548110611b3057611b2f612f25565b5b9060005260206000200154905080876000018481548110611b5457611b53612f25565b5b90600052602060002001819055508387600101600083815260200190815260200160002081905550505b85600001805480611b9257611b916132b0565b5b600190038181906000526020600020016000905590558560010160008681526020019081526020016000206000905560019350505050611bd3565b60009150505b92915050565b6000611be88360000183611cd3565b60001c905092915050565b600080611c03848460801b611cfe565b905080611c0f90612ebe565b91505092915050565b6000808383604051602001611c2e929190613379565b604051602081830303815290604052905080611c4990612ebe565b91505092915050565b600081600001805490509050919050565b6000611c6f8383611aa2565b611cc8578260000182908060018154018082558091505060019003906000526020600020016000909190919091505582600001805490508360010160008481526020019081526020016000208190555060019050611ccd565b600090505b92915050565b6000826000018281548110611ceb57611cea612f25565b5b9060005260206000200154905092915050565b60608282604051602001611d139291906133f2565b604051602081830303815290604052905092915050565b6000604051905090565b600080fd5b600080fd5b60007fffffffff0000000000000000000000000000000000000000000000000000000082169050919050565b611d7381611d3e565b8114611d7e57600080fd5b50565b600081359050611d9081611d6a565b92915050565b600060208284031215611dac57611dab611d34565b5b6000611dba84828501611d81565b91505092915050565b60008115159050919050565b611dd881611dc3565b82525050565b6000602082019050611df36000830184611dcf565b92915050565b600081519050919050565b600082825260208201905092915050565b6000819050602082019050919050565b600073ffffffffffffffffffffffffffffffffffffffff82169050919050565b6000611e5082611e25565b9050919050565b611e6081611e45565b82525050565b6000611e728383611e57565b60208301905092915050565b6000602082019050919050565b6000611e9682611df9565b611ea08185611e04565b9350611eab83611e15565b8060005b83811015611edc578151611ec38882611e66565b9750611ece83611e7e565b925050600181019050611eaf565b5085935050505092915050565b60006020820190508181036000830152611f038184611e8b565b905092915050565b611f1481611e45565b8114611f1f57600080fd5b50565b600081359050611f3181611f0b565b92915050565b600060208284031215611f4d57611f4c611d34565b5b6000611f5b84828501611f22565b91505092915050565b6000819050919050565b611f7781611f64565b82525050565b6000602082019050611f926000830184611f6e565b92915050565b6000819050919050565b611fab81611f98565b8114611fb657600080fd5b50565b600081359050611fc881611fa2565b92915050565b600060208284031215611fe457611fe3611d34565b5b6000611ff284828501611fb9565b91505092915050565b600081519050919050565b600082825260208201905092915050565b6000819050602082019050919050565b61203081611f98565b82525050565b60006120428383612027565b60208301905092915050565b6000602082019050919050565b600061206682611ffb565b6120708185612006565b935061207b83612017565b8060005b838110156120ac5781516120938882612036565b975061209e8361204e565b92505060018101905061207f565b5085935050505092915050565b600060208201905081810360008301526120d3818461205b565b905092915050565b6120e481611e45565b82525050565b60006020820190506120ff60008301846120db565b92915050565b61210e81611f98565b82525050565b60006020820190506121296000830184612105565b92915050565b600080fd5b600080fd5b6000601f19601f8301169050919050565b7f4e487b7100000000000000000000000000000000000000000000000000000000600052604160045260246000fd5b61218282612139565b810181811067ffffffffffffffff821117156121a1576121a061214a565b5b80604052505050565b60006121b4611d2a565b90506121c08282612179565b919050565b600067ffffffffffffffff8211156121e0576121df61214a565b5b6121e982612139565b9050602081019050919050565b82818337600083830152505050565b6000612218612213846121c5565b6121aa565b90508281526020810184848401111561223457612233612134565b5b61223f8482856121f6565b509392505050565b600082601f83011261225c5761225b61212f565b5b813561226c848260208601612205565b91505092915050565b60008060006060848603121561228e5761228d611d34565b5b600061229c86828701611fb9565b935050602084013567ffffffffffffffff8111156122bd576122bc611d39565b5b6122c986828701612247565b92505060406122da86828701611fb9565b9150509250925092565b600080604083850312156122fb576122fa611d34565b5b600061230985828601611fb9565b925050602061231a85828601611fb9565b9150509250929050565b6000806040838503121561233b5761233a611d34565b5b600061234985828601611fb9565b925050602061235a85828601611f22565b9150509250929050565b61236d81611f64565b811461237857600080fd5b50565b60008135905061238a81612364565b92915050565b6000602082840312156123a6576123a5611d34565b5b60006123b48482850161237b565b91505092915050565b600067ffffffffffffffff8211156123d8576123d761214a565b5b6123e182612139565b9050602081019050919050565b60006124016123fc846123bd565b6121aa565b90508281526020810184848401111561241d5761241c612134565b5b6124288482856121f6565b509392505050565b600082601f8301126124455761244461212f565b5b81356124558482602086016123ee565b91505092915050565b6000806040838503121561247557612474611d34565b5b600061248385828601611fb9565b925050602083013567ffffffffffffffff8111156124a4576124a3611d39565b5b6124b085828601612430565b9150509250929050565b600082825260208201905092915050565b7f53656372657420486173682063616e6e6f742062652062797465733332283029600082015250565b60006125016020836124ba565b915061250c826124cb565b602082019050919050565b60006020820190508181036000830152612530816124f4565b9050919050565b7f50726f76696465642061646472657373206973206e6f7420612067756172646960008201527f616e000000000000000000000000000000000000000000000000000000000000602082015250565b60006125936022836124ba565b915061259e82612537565b604082019050919050565b600060208201905081810360008301526125c281612586565b9050919050565b6000815190506125d881611f0b565b92915050565b6000602082840312156125f4576125f3611d34565b5b6000612602848285016125c9565b91505092915050565b7f4f776e6572206f66206163636f756e7420646f65736e277420737570706f727460008201527f204c53503620496e746572666163654964000000000000000000000000000000602082015250565b60006126676031836124ba565b91506126728261260b565b604082019050919050565b600060208201905081810360008301526126968161265a565b9050919050565b6000819050919050565b6126b86126b382611f98565b61269d565b82525050565b60006126ca82846126a7565b60208201915081905092915050565b7f477561726469616e73206e756d6265722063616e206e6f74206265206c6f776560008201527f72207468616e20746865207468726573686f6c64000000000000000000000000602082015250565b60006127356034836124ba565b9150612740826126d9565b604082019050919050565b6000602082019050818103600083015261276481612728565b9050919050565b7f43616c6c6572206973206e6f74206120677561726469616e0000000000000000600082015250565b60006127a16018836124ba565b91506127ac8261276b565b602082019050919050565b600060208201905081810360008301526127d081612794565b9050919050565b7f5468726573686f6c642073686f756c64206265206265747765656e203120616e60008201527f642074686520677561726469616e73436f756e74000000000000000000000000602082015250565b60006128336034836124ba565b915061283e826127d7565b604082019050919050565b6000602082019050818103600083015261286281612826565b9050919050565b7f50726f7669646564206164647265737320697320616c7265616479206120677560008201527f61726469616e0000000000000000000000000000000000000000000000000000602082015250565b60006128c56026836124ba565b91506128d082612869565b604082019050919050565b600060208201905081810360008301526128f4816128b8565b9050919050565b600081519050919050565b600082825260208201905092915050565b60005b8381101561293557808201518184015260208101905061291a565b83811115612944576000848401525b50505050565b6000612955826128fb565b61295f8185612906565b935061296f818560208601612917565b61297881612139565b840191505092915050565b60006040820190506129986000830185612105565b81810360208301526129aa818461294a565b90509392505050565b7f4f776e61626c653a206e6577206f776e657220697320746865207a65726f206160008201527f6464726573730000000000000000000000000000000000000000000000000000602082015250565b6000612a0f6026836124ba565b9150612a1a826129b3565b604082019050919050565b60006020820190508181036000830152612a3e81612a02565b9050919050565b7f4f776e61626c653a2063616c6c6572206973206e6f7420746865206f776e6572600082015250565b6000612a7b6020836124ba565b9150612a8682612a45565b602082019050919050565b60006020820190508181036000830152612aaa81612a6e565b9050919050565b7f4e487b7100000000000000000000000000000000000000000000000000000000600052601260045260246000fd5b6000612aeb82611f64565b9150612af683611f64565b925082612b0657612b05612ab1565b5b828206905092915050565b7f4e487b7100000000000000000000000000000000000000000000000000000000600052601160045260246000fd5b6000612b4b82611f64565b9150612b5683611f64565b9250827fffffffffffffffffffffffffffffffffffffffffffffffffffffffffffffffff03821115612b8b57612b8a612b11565b5b828201905092915050565b6000612ba182611f64565b9150612bac83611f64565b925082612bbc57612bbb612ab1565b5b828204905092915050565b7f596f75206469646e7420726561636820746865207468726573686f6c64000000600082015250565b6000612bfd601d836124ba565b9150612c0882612bc7565b602082019050919050565b60006020820190508181036000830152612c2c81612bf0565b9050919050565b600081519050919050565b600081905092915050565b6000612c5482612c33565b612c5e8185612c3e565b9350612c6e818560208601612917565b80840191505092915050565b6000612c868284612c49565b915081905092915050565b7f57726f6e67207365637265740000000000000000000000000000000000000000600082015250565b6000612cc7600c836124ba565b9150612cd282612c91565b602082019050919050565b60006020820190508181036000830152612cf681612cba565b9050919050565b612d0681611d3e565b82525050565b6000602082019050612d216000830184612cfd565b92915050565b600081905092915050565b6000612d3d826128fb565b612d478185612d27565b9350612d57818560208601612917565b80840191505092915050565b6000612d6f8284612d32565b915081905092915050565b612d8381611dc3565b8114612d8e57600080fd5b50565b600081519050612da081612d7a565b92915050565b600060208284031215612dbc57612dbb611d34565b5b6000612dca84828501612d91565b91505092915050565b6000612de6612de1846123bd565b6121aa565b905082815260208101848484011115612e0257612e01612134565b5b612e0d848285612917565b509392505050565b600082601f830112612e2a57612e2961212f565b5b8151612e3a848260208601612dd3565b91505092915050565b600060208284031215612e5957612e58611d34565b5b600082015167ffffffffffffffff811115612e7757612e76611d39565b5b612e8384828501612e15565b91505092915050565b6000819050602082019050919050565b6000612ea88251611f98565b80915050919050565b600082821b905092915050565b6000612ec9826128fb565b82612ed384612e8c565b9050612ede81612e9c565b92506020821015612f1e57612f197fffffffffffffffffffffffffffffffffffffffffffffffffffffffffffffffff83602003600802612eb1565b831692505b5050919050565b7f4e487b7100000000000000000000000000000000000000000000000000000000600052603260045260246000fd5b6000819050919050565b612f6f612f6a82611f64565b612f54565b82525050565b6000612f818284612f5e565b60208201915081905092915050565b60008160601b9050919050565b6000612fa882612f90565b9050919050565b6000612fba82612f9d565b9050919050565b612fd2612fcd82611e45565b612faf565b82525050565b6000612fe48284612fc1565b60148201915081905092915050565b600081519050919050565b600082825260208201905092915050565b6000819050602082019050919050565b600082825260208201905092915050565b600061303b826128fb565b613045818561301f565b9350613055818560208601612917565b61305e81612139565b840191505092915050565b60006130758383613030565b905092915050565b6000602082019050919050565b600061309582612ff3565b61309f8185612ffe565b9350836020820285016130b18561300f565b8060005b858110156130ed57848403895281516130ce8582613069565b94506130d98361307d565b925060208a019950506001810190506130b5565b50829750879550505050505092915050565b60006040820190508181036000830152613119818561205b565b9050818103602083015261312d818461308a565b90509392505050565b60006020820190508181036000830152613150818461294a565b905092915050565b7f4d696e696d756d20677561726469616e7320636f756e7420746f207265636f7660008201527f657220776974686f757420736563726574206973203200000000000000000000602082015250565b60006131b46036836124ba565b91506131bf82613158565b604082019050919050565b600060208201905081810360008301526131e3816131a7565b9050919050565b7f416c6c20677561726469616e73206e6565647320746f20766f746520666f722060008201527f796f750000000000000000000000000000000000000000000000000000000000602082015250565b60006132466023836124ba565b9150613251826131ea565b604082019050919050565b6000602082019050818103600083015261327581613239565b9050919050565b600061328782611f64565b915061329283611f64565b9250828210156132a5576132a4612b11565b5b828203905092915050565b7f4e487b7100000000000000000000000000000000000000000000000000000000600052603160045260246000fd5b60007fffffffffffffffffffffffff000000000000000000000000000000000000000082169050919050565b6000819050919050565b613326613321826132df565b61330b565b82525050565b60007fffffffffffffffffffffffffffffffffffffffff00000000000000000000000082169050919050565b6000819050919050565b61337361336e8261332c565b613358565b82525050565b60006133858285613315565b600c820191506133958284613362565b6014820191508190509392505050565b60007fffffffffffffffffffffffffffffffff0000000000000000000000000000000082169050919050565b6000819050919050565b6133ec6133e7826133a5565b6133d1565b82525050565b60006133fe82856133db565b60108201915061340e82846133db565b601082019150819050939250505056fea264697066735822122008e7aabfb4198ce4244ac53df20e4d652f2e8c353d7246cb7198fe4296769f5264736f6c63430008090033",
  "linkReferences": {},
  "deployedLinkReferences": {}
}